:020000040800F2
:100000000808002039020008E3200008211F00082A
:10001000E1200008E5050008F724000800000000C2
:10002000000000000000000000000000F9210008AE
:10003000A106000800000000E5200008FB210008E0
:10004000530200085302000853020008530200083C
:10005000530200085302000853020008530200082C
:10006000530200085302000853020008530200081C
:10007000530200085302000853020008530200080C
:100080005302000853020008530200080000000059
:100090000000000000000000000000005302000803
:1000A00053020008530200085302000853020008DC
:1000B000A52200085302000853020008530200085A
:1000C00053020008530200085302000853020008BC
:1000D0005302000853020008530200080000000009
:1000E00053020008530200085302000800000000F9
:1000F00000000000000000000000000053020008A3
:1001000000000000530200085302000853020008D8
:1001100000000000000000000000000000000000DF
:10012000530200085302000853020008530200085B
:10013000E9050008000000000000000000000000C9
:100140000000000000000000000000005302000852
:10015000530200085302000853020008530200082B
:1001600053020008530200080000000000000000D5
:10017000000000000000000000000000000000007F
:100180000000000053020008000000000000000012
:10019000530200085302000800F002F800F03CF897
:1001A0000AA090E8000C82448344AAF10107DA45D2
:1001B00001D100F031F8AFF2090EBAE80F0013F0E8
:1001C000010F18BFFB1A43F001031847E426000093
:1001D00004270000103A24BF78C878C1FAD8520723
:1001E00024BF30C830C144BF04680C6070470000B1
:1001F0000023002400250026103A28BF78C1FBD830
:10020000520728BF30C148BF0B6070471FB502F0CE
:100210003DFB1FBD10B510BD00F0CFF81146FFF734
:10022000F5FF02F0AFF900F0EDF803B4FFF7F2FFCD
:1002300003BC00F0F5F80000094880470948004772
:10024000FEE7FEE7FEE7FEE7FEE7FEE7FEE7FEE786
:10025000FEE7FEE704480549054A064B70470000E3
:1002600095220008990100080802002008080020D3
:10027000080400200804002053EA020C00F0698002
:100280002DE9F04B4FF00006002B1FBFB3FA83F5AA
:1002900003FA05F424FA05F65E4012BF1643B2FADB
:1002A00082F502FA05F4C5F120051EBF22FA05FC0D
:1002B00044EA0C04203556EA044C4FEA144418BFB3
:1002C000641C4FF000084FF00009904271EB030CE2
:1002D00039D3002919BFB1FA81F701FA07F6B0FA4C
:1002E00080F700FA07F6C7F120071EBF20FA07FCC7
:1002F00046EA0C062037B6FBF4FCA7EB0507103FD7
:1003000007F01F0BCBF120060CFA0BFB2CFA06F6BC
:1003100044BFB3460026202FA4BF5E464FF0000B1B
:100320005BEA060C08BF4FF0010B19EB0B09ABFBA6
:10033000027C48EB0608C01B06FB02CC0BFB03CC7F
:1003400071EB0C01C1E70B46024641464846BDE849
:10035000F08B13B54FF000004FF00001AFF30080B9
:10036000BDE81C4070474FF0000200B513469446AC
:100370009646203922BFA0E80C50A0E80C50B1F1FD
:100380002001BFF4F7AF090728BFA0E80C5048BF11
:100390000CC05DF804EB890028BF40F8042B08BFAF
:1003A000704748BF20F8022B11F0804F18BF00F8AB
:1003B000012B7047704770477047754600F02CF866
:1003C000AE4605006946534620F00700854618B042
:1003D00020B5FFF73FFFBDE820404FF000064FF08B
:1003E00000074FF000084FF0000B21F00701AC466A
:1003F000ACE8C009ACE8C009ACE8C009ACE8C00989
:100400008D46704710B50446AFF300802046BDE826
:100410001040FFF70ABF000000487047A801002005
:1004200001491820ABBEFEE726000200704710B558
:100430000146806B026C12F0500F05D0026CD206A0
:1004400026D500F0E5F910BD016C41F4007101649E
:1004500001688A6812F0405F17D1027EAAB9CA6AA1
:1004600012F4700F02D08A6852050ED44A6822F046
:1004700020024A60016C21F480710164016CC9049E
:1004800003D4016C41F00101016400F0BFF910BD1B
:10049000806BC26CBDE810400846104710B5806BF9
:1004A00040210164416C41F00401416400F0B0F965
:1004B00010BD10B5806B00F0AAF910BD464910B50B
:1004C0004A6822F440324A604A6843681A434A60E4
:1004D00001684A6822F480724A6001684A680369C8
:1004E00042EA03224A6001684A6822F040724A6088
:1004F00001684A6883681A434A6001688A6822F47E
:1005000000628A6001688A68C3681A438A60816AE7
:100510006FF07062D14201688A6822F070628A606E
:1005200001688A680CD0836A1A438A6001688A6805
:1005300022F040528A6001688A68C36A1A4301E067
:1005400022F040528A6001688A6822F002028A60C2
:1005500001688A68037E42EA43028A6090F82010AC
:10056000002901684A680FD042F400624A600168BD
:100570004A6822F460424A6001684A68174C436A3C
:1005800004EB43331A4301E022F400624A6001683D
:10059000CA6A22F47002CA620168CA6A838B104C6C
:1005A00004EB03531A43CA6201688A6822F400729A
:1005B0008A6001688A6890F8303042EA43228A6093
:1005C00001688A6822F480628A6001688A684069EA
:1005D00042EA8020886010BD0023014000E0FFFF58
:1005E0000000F0FFFEE70000024901200870024809
:1005F00000F0FEBA02000020480100200168182324
:10060000CAB2103AB2FBF3F2054B6FF30901032AA9
:100610009B5CC36500D9091D8165084670470000D1
:100620009628000810B5014600208B698A6A4FF0B1
:10063000C07453B1B3F5005F15D072B1012A0CD06C
:10064000022A0AD0032A09D104E01AB1012A06D0ED
:10065000022A03D1C96AC90100D5012010BDC96AA7
:10066000A142FAD010BD002AF7D0012AF2D0022A06
:10067000F3D0032AF3D010BD30B50468256825F403
:1006800080252560046863608368402B036803D07D
:1006900099600068C26030BD9A600068C16030BD7A
:1006A000704772B6FEE7000078B50024009490F819
:1006B0003C20012A19D0012280F83C200A68072337
:1006C0000568092A13D9EE680A3A02EB4202934000
:1006D0009E43EE600B788A680A3B03EB43039A4023
:1006E0000368DD682A43DA6010E0022078BD2E69D5
:1006F00002EB420293409E432E610B788A6803EB23
:1007000043039A4003681D692A431A614A681F23FC
:10071000072A13D205686E6B521E02EB82029340C9
:100720009E436E630A8893B20A79521E02EB8202DC
:1007300093400268556B2B43536327E005680D2AED
:1007400012D22E6BD21F02EB820293409E432E6385
:100750000B790A88DB1F92B203EB83039A4003688C
:100760001D6B2A431A6311E0EE6A0D3A02EB820216
:1007700093409E43EE620B790A880D3B92B203EBE5
:1007800083039A400368DD6A2A43DA621B4B0568DB
:10079000194A9D420AD10D68122D07D1556825F4DA
:1007A00000055560556845F48005556005689D4213
:1007B0001DD1134D0B68AB4201D0112B17D15368DB
:1007C00023F480035360536843F4000353600968C3
:1007D000A9420CD10B490C4A0968B1FBF2F101EBBB
:1007E0008101490000E0491E00910029FBD180F8F9
:1007F0003C40002078BD0000002301400020014063
:10080000120000101800002040420F00704770478F
:10081000704770B504004FF0000503D0206C00262F
:1008200010B107E0012070BD204600F01DF866649D
:1008300084F83C60206CC00610D4206C20F48850F2
:1008400040F0020020642046FFF738FE6664206C0A
:1008500020F0020040F00100206400E0012584F84F
:100860003C60284670BD000070B586B00646142175
:100870006846FFF778FD1D493068884233D11C482F
:100880000025016841F480710160006800F4807007
:10089000059017481438016841F0010101600068B3
:1008A000694600F00100059003200090CDE90105A4
:1008B000104800F021FB114C0F48C4E90005001559
:1008C000A560C4E90350800060618000A0618011D0
:1008D000C4E907052046656200F05AFA08B1FFF73F
:1008E000E0FEB463A66306B070BD000000200140C6
:1008F0004438024000000240706402404801002079
:1009000018B50021009190F83C20012A07D001225F
:1009100080F83C2002689368DB0702D011E00220D7
:1009200018BD936843F001039360244A244B126876
:10093000B2FBF3F202EB420200E0521E0092002AE8
:10094000FBD102689368DB072ED0036C40F2016490
:10095000A34343F48073036453685B0505D5036CBC
:1009600023F4005343F480530364036CDB0404D585
:10097000436C23F00603436400E0416480F83C10BC
:1009800010496FF02203136049680068C90602D05D
:100990000D49884210D1816811F0405F0CD1816807
:1009A00041F08041816007E0016C41F01001016479
:1009B000416C41F001014164002018BD1800002085
:1009C00040420F000023014000200140F8B50446DA
:1009D00000200E46009094F83C10012907D0012118
:1009E00084F83C1021688B68DB0702D011E00220FC
:1009F000F8BD8B6843F001038B603649364B0968BC
:100A0000B1FBF3F101EB410100E0491E0091002927
:100A1000FBD121688B68DB0503D58B6823F48073D9
:100A20008B6021688B68DB0749D0236C40F201653D
:100A3000AB4343F4807323644968490505D5216CB1
:100A400021F4005141F480512164216CC90404D582
:100A5000616C21F00601616400E0606484F83C0090
:100A6000A16B1F481D4DC863A16B1E480864A16B94
:100A70001D48C86421686FF0220008602068416842
:100A800041F0806141602068816841F4807181603B
:100A90002168134632464C31A06B00F0E3F96868D8
:100AA000C006206802D01149884210D1816811F037
:100AB000405F0CD1816841F08041816007E0206C8B
:100AC00040F010002064606C40F001006064002081
:100AD000F8BD00001800002040420F000023014034
:100AE0002F040008B30400089D0400080020014002
:100AF00010B50446002094F83C1001290CD00121C7
:100B000084F83C1021688A6822F001028A6021681A
:100B10008A68D20702D01DE0022010BD8A6822F444
:100B200080728A60A16B91F83520022A07D10846AD
:100B300000F014F818B1216C41F0400121642168E3
:100B40004A6822F080624A60216C21F4885141F0A9
:100B500001012164002184F83C1010BD2DE9F04111
:100B60000446876D00F0BEFA064694F8350000256D
:100B7000022806D08020606584F834500120BDE84A
:100B8000F0812068016821F0160101602068416948
:100B900021F080014161206C08B9A06C20B120686F
:100BA000016821F0080101602068016821F001015D
:100BB00001600CE000F096FA801B052807D9202080
:100BC0006065032084F8350084F83450D7E7206846
:100BD0000068C007EED194F85C103F208840B860F0
:100BE000012084F8350084F834500020C7E7000065
:100BF0002DE9F84304464FF00009CDF80090634812
:100C00004FF41651A56D0068B0FBF1F72E6894F80B
:100C10005C10082000FA01F131420FD021680A6807
:100C200052070BD50A6822F004020A6094F85C109F
:100C30008840A860606D40F00100606594F85C1029
:100C40004FF0010808FA01F0304208D021684969E4
:100C5000090604D5A860606D40F00200606594F854
:100C60005C1004208840304208D021680968890758
:100C700004D5A860606D40F00400606594F85C10D5
:100C800010208840304218D021680968090714D51F
:100C9000A86020680168490304D50068000308D5EE
:100CA000A16C07E00168C90503D4016821F00801BF
:100CB0000160216C09B12046884794F85C1020201F
:100CC0008840304231D021680968C9062DD5A86016
:100CD00094F8350005282068016806D0490347D5F7
:100CE000006800031DD4616C1CE021F01601016056
:100CF0002068416921F080014161206C08B9A06C35
:100D000020B12068016821F00801016094F85C10AE
:100D10003F208840A86084F8358084F83490216DA5
:100D20001FE0E16B09B120468847606D00282BD099
:100D3000606DC00714D0052084F835002068016874
:100D400021F0010101600098401C0090B84203D8D6
:100D500020680068C007F6D184F8358084F83490A4
:100D6000E16C002910D001B02046BDE8F0430847EF
:100D70000168C905D5D4016821F01001016084F82B
:100D8000358084F83490CCE7BDE8F8831800002063
:100D90002DE9F041044600F0A5F906465CB10220B9
:100DA00084F83500002584F834502068016821F06B
:100DB000010101600DE00120BDE8F08100F092F931
:100DC000801B052805D920206065032084F83500A4
:100DD000F2E720680068C007F0D122681168204857
:100DE0000140D4E901031843D4E9033633431843DF
:100DF00063691843A3691843E3691843236A1843D6
:100E00000843616A042903D1D4E90B131943084349
:100E1000106020684069666A20F0070130460E4382
:100E2000012704280CD1A06A0643E06A40B120469D
:100E3000FFF7F8FB20B14020606584F83570BAE711
:100E4000206846612046FFF7D9FB94F85C203F21DB
:100E500091408160656584F835700020ACE7000042
:100E60003F8010F02DE9F0410446866D90F8340083
:100E7000002501280DD0012084F8340094F8357045
:100E80000020012F07D084F8340002252846BDE851
:100E9000F0810220FBE7022784F835706065204668
:100EA000FFF7EAFB94F85C103F208840B0602068B0
:100EB000016841F016010160206C20B120680168D2
:100EC00041F0080101602068016841F00101016002
:100ED000DCE7000070B5044600F004F90546601C2C
:100EE00002D004480078044400F0FCF8401BA04203
:100EF000FAD370BD0C0000202DE9F84FDFF8B8A13F
:100F00000022012403254FF00F090AF1040BAAF176
:100F1000040E00BF0B6804FA02F63340B34273D1EB
:100F20000F7907F00307012F01D0022F16D1876830
:100F30004FEA420805FA08FC27EA0C07D1F80CC072
:100F40000CFA08FC4CEA070CC0F808C04768B74325
:100F50000E79C6F3001696403E4346600E79F6437E
:100F6000B6070DD0C768560005FA06FC27EA0C073D
:100F7000D1F808C00CFA06FC4CEA070CC0F80CC00B
:100F80000E7906F00306022E10D1D60800EB860873
:100F9000D8F8206057074FEAD76C09FA0CF7BE4320
:100FA0000F6907FA0CF73743C8F8207006684FEA54
:100FB000420C05FA0CF7BE430F7907F0030707FA56
:100FC0000CF7374307604E6816F4403F6DD03B4E38
:100FD000376847F480473760366822F0030706F425
:100FE00080460096364E07EB060CDCF8086897073B
:100FF0003F0F09FA07F826EA0806DFF8C8804045DF
:1010000003D14FF000081EE04FE0DFF8BC80404500
:1010100002D14FF0010816E0DFF8B080404502D160
:101020004FF002080FE0DFF8A880404502D14FF0F2
:10103000030808E0DFF89C80404502D14FF0040827
:1010400001E04FF0070808FA07F848EA0608CCF86C
:101050000888DAF800605746D1F804C09E435FEA7A
:10106000CC2C00D51E433E60DBF800605F46D1F813
:1010700004C09E435FEA8C2C00D51E433E60DEF820
:1010800000607746D1F804C09E435FEA8C3C00D5EF
:101090001E433E60084F083F3E68D1F804C09E439F
:1010A0005FEACC3C00D51E433E60521C102AFFF480
:1010B00031AFBDE8F88F0000083C014044380240E1
:1010C00000300140000002400004024000080240DD
:1010D000000C0240001002400AB18161704709040F
:1010E000FBE7000001488068704700000C0000200A
:1010F0000248816802781144816070470C0000202A
:101100000B4810B5016841F400710160016841F4B9
:1011100080610160016841F480710160032000F08A
:101120006FF80F2000F006F800F024F8002010BD42
:10113000003C024070B50D4D04464FF47A7128789A
:10114000B1FBF0F00A490968B1FBF0F000F031FCA6
:1011500048B9102C07D200222146501E00F030F86A
:1011600000206C6070BD012070BD00000C000020EC
:10117000180000200A4808B5016841F48041016068
:10118000006800F4804000900548001F016841F0AD
:1011900080510160006800F08050009008BD0000A0
:1011A00044380240002809DB00F01F020121914071
:1011B0004009800000F1E020C0F8001170470000F5
:1011C000F0B40E4B1B680C46C3F30223C3F10705B2
:1011D000042D00D90425191D072901D2002300E0A0
:1011E000DB1E012606FA05F1491E214099409E406A
:1011F000761E16403143F0BC01F07EB90CED00E0E4
:10120000064900F0070208684FF6FF03184040EA5D
:101210000220034A10430860704700000CED00E014
:101220000000FA052DE9F0470E46050065D0DFF80D
:101230001481D8F80000F7B200F00700B04207D2DE
:1012400088F80070D8F8000000F00700B04254D1D0
:1012500028683D4C810712D5400703D5206840F42B
:10126000E05020602878000703D5206840F46040F3
:1012700020602068A96820F0F000084320602878EA
:10128000C0072DD0304968680839012812D00228DB
:1012900013D0032811D00968890700292DDA2168A5
:1012A00021F0030101432160FFF71CFF814641F259
:1012B000883A0EE009688903EFE709688901ECE7DD
:1012C000FFF710FFA0EB0901514502D90320BDE84B
:1012D000F0872068696800F00C00B0EB810FEFD157
:1012E000D8F80010404601F00701B14207D9077055
:1012F000006800F00700B04201D00120E7E728783D
:10130000400705D52068E96820F4E05008432060D4
:101310002878000706D52068296920F4604040EA53
:10132000C100206000F018F82168084AC1F30311D9
:10133000515CC8400649086006480068FFF7FAFE9D
:101340000020C4E7003C0240083802409E28000804
:101350001800002010000020154810B5006810F09B
:101360000C02144813D01449042A0FD0082A0ED1B5
:101370000F4C241F2268236802F03F025B0207D54E
:101380002068C0F38810A0FB010106E0084610BDEC
:101390002168C1F38811A1FB00010023FEF76CFF57
:1013A0002168C1F30141491C4900B0FBF1F010BDB7
:1013B000083802400024F40040787D012DE9F84F00
:1013C00004006ED02078DFF84C93C007A9F1040523
:1013D0004AD009F104000168C1F38101012908D054
:1013E0000068C0F3810002280AD1D9F80000400249
:1013F00006D52868800337D560680028E1D033E03F
:101400006068B0F5803F10D0B0F5A02F286810D0EC
:1014100020F480302860286820F4802028606068EC
:10142000A8B1FFF75FFE06460DE0286840F4803063
:10143000F4E740F480202860F7E700BFFFF752FE92
:10144000801B642873D828688003F7D50CE0FFF769
:1014500049FE064605E000BFFFF744FE801B6428F6
:10146000F0D828688003F7D42078DFF8AC828007B2
:101470004FF0000A3ED5A748001D016811F00C0F7F
:1014800008D00068C0F3810002280BD1D9F8000011
:10149000400207D42868800716D5E068012800D1EB
:1014A00012E033E1E068B8B10120C8F80000FFF7AE
:1014B00019FE064605E000BFFFF714FE801B022858
:1014C000C0D828688007F7D52868216920F0F8007F
:1014D00040EAC10028600DE0C8F800A0FFF702FE56
:1014E000064604E0FFF7FEFD801B02281FD828688F
:1014F0008007F7D42078000722D5864F8748616996
:10150000703771B101210160FFF7ECFD064604E080
:10151000FFF7E8FD801B022809D838688007F7D557
:101520000EE0C0F800A0FFF7DDFD064605E082E012
:10153000FFF7D8FD801B02287DD838688007F7D4D4
:101540002078400768D5DFF8CCB100270BF13C0BC1
:10155000DBF80000C0000BD4DBF8001041F0805134
:10156000CBF80010DBF80000012700F0805000905D
:101570006B4E3068C00510D4306840F48070306025
:10158000FFF7B0FD009005E0FFF7ACFD0099401AB1
:10159000022850D83068C005F6D55E4EA0686C367B
:1015A00001280FD00528306810D020F001003060ED
:1015B000306820F004003060A068B8B1FFF792FDF9
:1015C00000900FE0306840F00100F4E740F00400C4
:1015D0003060F7E7FFF786FD0099411A41F2883045
:1015E000814266D830688007F4D50EE0FFF77AFDB7
:1015F000009007E0FFF776FD0099411A41F288302C
:10160000814256D830688007F4D42FB1DBF800103F
:1016100021F08051CBF80010A069C8B33D49091DE5
:101620000968C1F3810102294AD00228504607D037
:10163000C8F8600000E03CE0FFF754FD04463BE0E2
:101640004746C8F86000FFF74DFD064605E000BFBD
:10165000FFF748FD801B02282BD828688001F7D4AB
:10166000D4E907010843A16A2E4A490802EB014167
:10167000626A41EA8211084394F82C1040EA016141
:10168000C9F8001001203866FFF72CFD044606E07B
:101690003EE000BFFFF726FD001B022809D828689E
:1016A0008001F7D534E000BFFFF71CFD001B0228C6
:1016B00002D90320BDE8F88F28688001F4D427E020
:1016C0000128F7D0D9F80000E26900F480019142C6
:1016D0001CD1226A00F03F01914217D147F6C07138
:1016E000626A0140B1EB821F10D1A26A4FF0FF3352
:1016F00000F4403103EB5202B1EB024F06D194F8F3
:101700002C1000F07060B0EB016F01D00120D1E728
:101710000020CFE70438024000004742800E4742D5
:10172000007000400000FFFF70B5040009D0606A3F
:10173000002540B125616561A56294F8510040B172
:101740000CE0012070BD6068B0F5827FF4D0E561E7
:10175000F2E784F85050204600F044F8022084F864
:1017600051002068016821F040010160A0882189B2
:1017700000F4827001F404410843A18901F400617E
:101780000843217C01F002010843217D01F00101A1
:101790000843218B01F400710843217F01F03801D7
:1017A000084394F8201001F080010843218D01F4D2
:1017B0000051084321680860A069042101EA104033
:1017C00094F8241001F01001084321684860206853
:1017D000C16921F40061C1616565012084F851008F
:1017E000002070BD10B586B0044614216846FEF78F
:1017F000BAFD13492068884220D1124800210268AE
:1018000042F480520260006800F4805005900D4858
:101810001438026842F001020260006800F0010022
:101820000590A02000900220CDE901010320039043
:101830000520049069460448FFF75EFB06B010BD22
:101840000030014044380240000002402DE9F84FCA
:10185000044690F8500000271D4616468946012888
:101860000DD04FF0010B84F850B0FFF73BFC8046E1
:1018700094F85100BA46012804D0022793E00220D0
:10188000BDE8F88FB9F1000F73D0002E71D003209E
:1018900084F85100C4F854A0C4F83090A686E686B7
:1018A000C4F838A0A4F83CA0A4F83EA0C4F844A012
:1018B000C4F840A0A068B0F5004F09D120680168C5
:1018C00021F0400101602068016841F4804101601D
:1018D00020680168490603D4016841F040010160B5
:1018E000E068B0F5006F606803D030B3012E24D0FB
:1018F00041E008B1012E1CD1206B21680088C8602E
:1019000006E020688168890709D5216B0988C160D4
:10191000206B801C2063E08E401EE08609E0FFF70C
:10192000E1FBA0EB0800A84202D3681C01D031E023
:101930007DB3E08E0028E4D120E0206B21680078A0
:10194000087306E020688168890709D5216B09784A
:101950000173206B401C2063E08E401EE0860AE08D
:10196000FFF7C0FBA0EB0800A84203D3681C02D01D
:1019700010E017E06DB1E08E0028E3D14246294621
:10198000204600F0B1FB08B120206065A06818B1C6
:1019900006E0FFE7032706E02068C1688068009042
:1019A000606D00B1012784F851B084F850A038462A
:1019B00066E710B5401EB0F1807F01D3012010BD55
:1019C0004FF0E02460610F21601700F095FD0020CA
:1019D000A06107202061002010BD70477047000003
:1019E00070B590F83C20012A2CD0012480F83C40AE
:1019F000022280F83D2003685A689D6822F0700634
:101A00000A6832435A60104B02689A420ED0B2F113
:101A1000804F0BD00D4B9A4208D00D4B9A4205D007
:101A20000C4B9A4202D00C4B9A4204D1496825F0E3
:101A300080031943916080F83D40002180F83C10FC
:101A4000084670BD022070BD000001400004004047
:101A500000080040000C00400040014010B50400A8
:101A600003D094F83D0010B107E0012010BD002024
:101A700084F83C00204600F01FF8022084F83D0066
:101A8000211D206800F014FC012084F8460084F831
:101A90003E0084F83F0084F8400084F8410084F858
:101AA000420084F8430084F8440084F8450084F838
:101AB0003D00002010BD000008B50068B0F1804F67
:101AC00012D10A48016841F001010160006800225A
:101AD00000F00100009011461C20FFF771FBBDE8EB
:101AE00008401C20FFF75EBB08BD000040380240E4
:101AF00090F83D10012901D001207047022180F8A3
:101B00003D100168CA6842F00102CA6000680E49CF
:101B100088420ED0B0F1804F0BD00C49884208D0DB
:101B20000B49884205D00B49884202D00A498842B5
:101B300004D1816801F00701062903D0016841F052
:101B400001010160002070470000014000040040D6
:101B500000080040000C00400040014070B5044601
:101B600090F83C000025012817D0012684F83C603D
:101B7000022084F83D002068826822F0770222F477
:101B80007F4282600868502838D00DDC20284FD072
:101B900005DC90B3102811D14AE0022070BD302836
:101BA00046D040280AD13BE060282FD070280DD0C5
:101BB000B0F5805F03D0B0F5005F12D0012584F846
:101BC0003D60002084F83C00284670BDCB68D1E918
:101BD0000121206800F0B8FB2068816841F077019E
:101BE00009E0CB68D1E90121206800F0ADFB206855
:101BF000816841F480418160E1E719E0CA68496881
:101C0000206800F055FC5021206806E0CA68496849
:101C1000206800F05EFC6021206800F09FFBCEE7AA
:101C2000CA684968206800F043FC40212068F4E756
:101C3000226801461046F0E7704770B50446006818
:101C400001694FF00005C943890715D4C168C9432C
:101C5000890711D4E91E016101202077206880697D
:101C60008007204602D0FFF7E7FF04E000F0C0F84D
:101C7000204600F052F9257720680169C9434907D9
:101C800017D4C168C943490713D46FF00401016137
:101C9000022020772068806910F4407F204602D01F
:101CA000FFF7CAFF04E000F0A3F8204600F035F982
:101CB000257720680169C943090716D4C168C9435B
:101CC000090712D46FF00801016104202077206811
:101CD000C0698007204602D0FFF7AEFF04E000F0A5
:101CE00087F8204600F019F9257720680169C94373
:101CF000C90617D4C168C943C90613D46FF01001CF
:101D00000161082020772068C06910F4407F2046D8
:101D100002D0FFF791FF04E000F06AF8204600F0DF
:101D2000FCF8257720680169C943C90708D1C16853
:101D3000C943C90704D1891E0161204600F0EEF8AD
:101D400020680169C943090609D4C168C943090665
:101D500005D46FF0800101612046FFF73EFE206848
:101D60000169C943490609D4C168C943490605D474
:101D70006FF040010161204600F0D1F82068016950
:101D8000C94389060BD4C168C943890607D46FF0DB
:101D9000200101612046BDE87040FFF71FBE70BD05
:101DA00010B586B0044614216846FEF7DCFA2068B8
:101DB000B0F1804F16D10C480021026842F00102B8
:101DC0000260006800F0010005904FF400400090B0
:101DD0000220CDE901010120CDE903106946034845
:101DE000FFF78AF806B010BD30380240000002400C
:101DF000704770B5044690F83C0000260D46012857
:101E00000FD0012084F83C006AB1042A1DD0082AB2
:101E10002FD00C2A3FD00126002084F83C00304609
:101E200070BD022070BD206800F0A0FA20688169B2
:101E300041F0080181612068816921F0040181611C
:101E4000206881692A69114311E0206800F0B6FA20
:101E50002068816941F4006181612068816921F411
:101E600080618161206881692A6941EA022181617A
:101E7000D2E7206800F0CEFA2068C16941F008017D
:101E8000C1612068C16921F00401C1612068C16994
:101E90002A69114311E0206800F0E8FA2068C1695E
:101EA00041F40061C1612068C16921F48061C161B0
:101EB0002068C1692A6941EA0221C161ACE710B515
:101EC000040003D094F83D0010B107E0012010BDDC
:101ED000002084F83C00204600F01EF8022084F820
:101EE0003D00211D206800F0E3F9012084F8460040
:101EF00084F83E0084F83F0084F8400084F84100F4
:101F000084F8420084F8430084F8440084F84500D3
:101F100084F83D00002010BD70477047704770473F
:101F2000FEE700007FB50024194800940194029454
:101F300016490394C0E90014012505618460047604
:101F400080F820401349C0E90A140226C661C46023
:101F500080F830504561FEF75CFC08B172B6FEE7D0
:101F6000CDE9004569460A480294FEF79DFB08B199
:101F700072B6FEE7CDE9005669460548FEF794FBC8
:101F8000002801D072B6FEE77FBD000000200140AE
:101F9000600000200100000F70B586B01421684673
:101FA000FEF7E1F916480024016841F08001016064
:101FB000016801F080010591016841F001010160B3
:101FC000016801F001010591016841F0040101601F
:101FD00000680C4E00F004004FF47075059000226C
:101FE00029463046FFF778F801200095CDE9010435
:101FF000694630460394FEF77FFF06B070BD0000CF
:1020000030380240000802400E4810B50C4901600B
:102010004FF48271416000218160C1604FF4007211
:102020000161C0E90512C1610162416281620A2158
:10203000C162FFF779FB002801D072B6FEE710BD40
:1020400000300140A800002010B58EB00024079495
:10205000089409940A940B941C2168460C94FEF78A
:1020600082F91E484FF0804101606321C0E90114EC
:1020700040F2E731C0E903148461FFF7EFFC08B1D7
:1020800072B6FEE74FF48050079007A91348FFF798
:1020900065FD08B172B6FEE71048FFF710FF08B102
:1020A00072B6FEE70B940BA90C480C94FFF798FC52
:1020B00008B172B6FEE76020CDE900040294002268
:1020C000694606480494FFF794FE08B172B6FEE72D
:1020D0000248FFF765FE0EB010BD000000010020B1
:1020E000FEE7FEE77047000038B504461248134B80
:1020F0000068B0FBF3F04FF47A73584300906068C7
:10210000B0F5827F0DD10B4600920022802120463F
:1021100000F016F870B1606D40F02000606503209B
:1021200038BD009830B1401E009020688068C043E0
:102130000006F6D5002038BD1800002000366E01DC
:102140002DE9F8431E46914688460446089DFEF751
:10215000C9FF401B351AFEF7C5FF07462548006832
:10216000C0F3CB30684338E0701C37D0FEF7BAFFBD
:10217000C01BA84203D215B1009860B32CE02068C0
:10218000416821F0E00141606068B0F5827F0BD1C9
:10219000A068B0F5004F02D0B0F5806F04D1206880
:1021A000016821F040010160A06AB0F5005F09D12B
:1021B0002068016821F4005101602068016841F441
:1021C00000510160012084F85100002084F8500083
:1021D0000320BDE8F8830025401E00902068816838
:1021E00038EA010004D000214945BDD10020F0E7C4
:1021F0000121F9E7180000207047FEF779BF0000C1
:1022000030B593B030216846FEF7ADF814210CA824
:10221000FEF7A9F81D480025016841F080510160D2
:10222000006800F0805011901948016841F4404165
:1022300001600068022400F44040119001200090E9
:10224000000401908001CDE9064019200890A020EB
:10225000CDE9090404200B906846FFF7AFF808B1F8
:1022600072B6FEE70CA90F2081E831004FF4A050B0
:102270000F904FF4E050109002210CA8FEF7D2FF0F
:10228000002801D072B6FEE713B030BD40380240DE
:10229000007000400248016841F47001016070471D
:1022A00088ED00E00148FFF7C8BC000000010020F5
:1022B000F0B502681D4B1E4C9F031E4D1E4E9842EA
:1022C00007D0B84205D0A04203D0A84201D0B04206
:1022D00004D122F0700C4A6842EA0C02984210D0F5
:1022E000B8420ED0A0420CD0A8420AD0B04208D0CA
:1022F000124CA04205D0124CA04202D0114CA04278
:1023000003D122F44074CA6822434C6922F080024F
:10231000224302608A68C2620A688262984201D1DE
:102320000969016301214161F0BD00000000014025
:102330000004004000080040000C00400040014044
:10234000004401400048014010B5846842EA03227D
:1023500024F47F440A432243826010BD826822F045
:1023600070020A4342F007018160704730B5026A8B
:1023700022F001020262026A4368846924F0730554
:102380000C682C4322F002058A682A430A4DA842B1
:102390000BD122F00805CA6823F440732A434D6923
:1023A00022F004021D438B692B434360846149681A
:1023B0004163026230BD00000000014030B5026A96
:1023C00022F010020262026A436884690D6824F4F4
:1023D000E64444EA05248D6822F0200242EA051210
:1023E0000B4DA8420ED1CD6822F0800242EA0512C0
:1023F0004D6923F4406343EA85038D6922F040026E
:1024000043EA85034360846149688163026230BDA9
:102410000000014030B5026A22F480720262036A51
:102420004268C46923F4007324F073050C682C43DC
:102430008D6843EA05230C4DA8420ED1CD6823F4E4
:10244000006343EA05234D6922F4405242EA051233
:102450008D6923F4806342EA05124260C4614968D1
:10246000C163036230BD00000000014030B5026A64
:1024700022F480520262046A4268C3690D6823F440
:10248000E64343EA05238D6824F4005444EA053406
:10249000064DA84204D14D6922F4804242EA8512D9
:1024A0004260C36149680164046230BD00000140BC
:1024B00010B5036A046A24F001040462846924F0FC
:1024C000F00444EA021423F00A020A43846102621F
:1024D00010BD10B5036A23F0100303628369046A18
:1024E00023F4704343EA023224F0A00343EA0111CB
:1024F0008261016210BDFEE70907090E002804DBB6
:1025000000F1E02080F80014704700F00F0000F1A7
:10251000E02080F8141D7047014600200A784978B1
:10252000202A03D2102900D302207047102901D39A
:1025300003207047012070470021FF224254491CAC
:10254000C9B21029FAD3704737B514460B4668460E
:10255000FFF7E2FF002814D19DF8011001F00302FB
:10256000A2420ED19DF800408A0804F00701E40859
:1025700002EB8402C1F107059C5C0121A9408C4358
:102580009C543EBDBD4D08B50420287668760321D5
:10259000A976E97628774FF0010A85F81FA0FEF7A3
:1025A000AFFDFFF72DFEFFF7F7FCB54800260168E9
:1025B00041F4800101600068324600F48000009020
:1025C00031463C20FEF7FCFD3C20FEF7EBFDFFF71B
:1025D000A9FCFFF739FDFFF717FD05F13800FEF7FD
:1025E0008FF9A5F10C01022201F14400FEF7EEF98A
:1025F00005F1D800FFF77CFAA24FDFF88CB24FF458
:1026000080784FF400799D482830FFF795FF9B4C68
:1026100003220C3C04F13401E08CADF8000000987A
:10262000FFF792FF002240213846FEF755FD0022B9
:1026300080213846FEF750FD002241463846FEF71D
:102640004BFD002249463846FEF746FD04F13401B1
:102650000A23102201F15800FFF7F8F80122494639
:102660003846FEF739FD012240213846FEF734FD99
:102670000120FEF72FFC04F13400FFF75DFFE08C32
:10268000ADF80000012204F134010098FFF75CFF6F
:10269000002240213846FEF71FFD002280213846E7
:1026A000FEF71AFD012241463846FEF715FD0022CD
:1026B00049463846FEF710FD04F134010A23102282
:1026C00001F15800FFF7C2F8012249463846FEF7EB
:1026D00003FD012240213846FEF7FEFC0120FEF7F3
:1026E000F9FB04F13400FFF727FFE08CADF80000A0
:1026F000022204F134010098FFF726FF0022402156
:102700003846FEF7E9FC012280213846FEF7E4FC5A
:10271000002241463846FEF7DFFC00224946384693
:10272000FEF7DAFC04F134010A23102201F158000B
:10273000FFF78CF8012249463846FEF7CDFC01220E
:1027400040213846FEF7C8FC0120FEF7C3FB04F128
:102750003400FFF7F1FEE08CADF80000002204F138
:1027600034010098FFF7F0FE002240213846FEF7C2
:10277000B3FC012280213846FEF7AEFC012241461F
:102780003846FEF7A9FC002249463846FEF7A4FC6D
:1027900004F134010A23102201F15800FFF756F822
:1027A000012249463846FEF797FC0122402138466F
:1027B000FEF792FC0120FEF78DFBDBF804204FF4BE
:1027C0007A605C46824202D32178491C21704FF422
:1027D00048718A4202D82278521E2270A268824230
:1027E00002D36078401C60708A4202D86078401E34
:1027F000607094F900000A2802DDA87E401C04E005
:1028000010F10A0F03DAA87E401EA876267094F90C
:1028100001000A2802DDE87E401E04E010F10A0FE4
:1028200003DAE87E401CE8766670A87E202802D98C
:1028300085F81AA002E008B92020A876E87E1028C2
:1028400002D985F81BA002E008B91020E876A0782C
:1028500000283FF4D8AE0948A6703830FEF748F992
:10286000064802220C38016861604168A160066078
:10287000014646604430FEF7A9F8C4E6280000206F
:102880003038024000080240000000204FF0407045
:10289000E1EE100A70470006101600061016000040
:1028A0000000000000000102030406070809000000
:1028B000D0280008000000201C000000D4010008FF
:1028C000EC2800081C000020EC070000F0010008C4
:1028D00000000000000000000000000001000000F7
:0C28E00010000000000000000024F400C4
:040000050800019955
:00000001FF
